:100000000C944D010C9475010C9475010C947501C0
:100010000C9475010C9475010C9475010C94750188
:100020000C9475010C9475010C9475010C94750178
:100030000C9475010C9475010C9475010C94750168
:100040000C9437150C9475010C9405140C94DF1363
:100050000C9475010C9475010C9475010C94750148
:100060000C9438080C94750108000000BE922449D5
:10007000123EABAAAA2ABECDCCCC4C3E00000080DA
:10008000BEABAAAAAA3E00000000BF000000803F4D
:100090000000000000084178D3BB4387D1133D190D
:1000A0000E3CC3BD4282AD2B3E68EC8276BED98F3A
:1000B000E1A93E4C80EFFFBE01C4FF7F3F0000007E
:1000C000000007634236B79BD8A71A39685618AEA6
:1000D000BAAB558C1D3CB7CC5763BD6DEDFD753E7D
:1000E000F6177231BF000000803F000000002400BE
:1000F00027002A00696E697469616C697A617469A4
:100100006F6E20646F6E652E00496E697469616C54
:10011000697A696E6720534420636172642E2E2EC3
:10012000006572726F72206F70656E696E67207401
:100130006573742E74787400005EBCE2613FDD83E9
:10014000C29C7E20A3FD1F419DC3217FFCA2401EB7
:100150005F01E3BD3E6082DC237D9FC1421CFEA0A7
:10016000E1BF5D0380DE3C62BEE0025CDF81633D97
:100170007C22C09E1D43A1FF4618FAA427799BC587
:1001800084DA3866E5BB5907DB856739BAE4065877
:100190001947A5FB7826C49A653BD987045AB8E667
:1001A000A7F91B45C6987A24F8A6441A99C7257B57
:1001B0003A6486D85B05E7B98CD2306EEDB3510F47
:1001C0004E10F2AC2F7193CD114FADF3702ECC9237
:1001D000D38D6F31B2EC0E50AFF1134DCE90722C27
:1001E0006D33D18F0C52B0EE326C8ED0530DEFB117
:1001F000F0AE4C1291CF2D73CA947628ABF5174907
:100200000856B4EA6937D58B5709EBB536688AD4F6
:1002100095CB2977F4AA4816E9B7550B88D6346AE6
:100220002B7597C94A14F6A8742AC896154BA9F7D6
:10023000B6E80A54D7896B35000000002300260079
:100240002900040404040404040402020202020259
:10025000030303030303010204081020408001028A
:10026000040810200102040810207C3C3E5E2B3D57
:100270003F2F5B5D3B2C2A225C0000000000250024
:1002800028002B0000000008000201000003040702
:100290000000000000000000942511241FBECFEFD5
:1002A000D8E0DEBFCDBF27E0A0EFB2E001C01D92D5
:1002B000AD35B207E1F712E0A0E0B1E0E8EBFAE516
:1002C00002C005900D92A03FB107D9F711E0CDE42F
:1002D000D1E004C02197FE010E942C2BCC34D10721
:1002E000C9F70E94DB1B0C945A2D0C940000DC0112
:1002F0005996ED91FC915A973097B9F0838994897A
:10030000A589B6894285538564857585841B950BBF
:10031000A60BB70B811520E89207A105B10538F0AF
:100320008FEF9FE7A0E0B0E0089580E090E00895AF
:10033000CF93DF931F92CDB7DEB76983DC01ED91D8
:10034000FC910280F381E02D41E050E0BE016F5F3F
:100350007F4F09950F90DF91CF91089585ED8093A0
:10036000BC008091BC0084FDFCCF1092A9030895CD
:1003700040913A03262F30E0240F311D2132310500
:10038000DCF42091A9032430C9F4FC0180E090E062
:10039000861758F430913A032191DC01A85EBC4FD6
:1003A000A30FB11D2C930196F3CF80913A03680FF0
:1003B00060933A0380E0089581E0089582E0089513
:1003C0000895E091620380916103E81730F4F0E052
:1003D000ED59FC4F808190E008958FEF9FEF0895D5
:1003E0009091620380916103981750F4E92FF0E037
:1003F000ED59FC4F208130E09F5F9093620302C073
:100400002FEF3FEFC90108958091610390E02091A3
:100410006203821B91090895CF92DF92EF92FF92BF
:100420000F931F93CF93DF937C01262F972F8A0181
:100430008091AA03882391F0C62FD72F6E01C40E96
:10044000D51ECC15DD0571F06991D701ED91FC91B8
:100450000190F081E02DC7010995F3CF642F822F21
:100460000E94B801C801DF91CF911F910F91FF90B9
:10047000EF90DF90CF900895CF93DF931F92CDB789
:10048000DEB769832091AA032223D1F02091CD0306
:10049000203240F021E030E0FC013383228380E011
:1004A00090E015C08091AB03E82FF0E0E455FC4FDD
:1004B000998190838F5F8093AB038093CD0305C0B8
:1004C00061E0CE0101960E94B80181E090E00F90BA
:1004D000DF91CF910895089580E090E00895FC01A8
:1004E000818D928D009711F00C940E190895CF9381
:1004F000DF93EC01898D9A8D009739F481E090E0CB
:100500009B838A8380E090E00BC0FC0113821282FF
:100510000E94E219E98DFA8D22813381232B71F734
:10052000DF91CF9108958F929F92AF92BF92CF9219
:10053000DF92EF92FF920F931F93CF93DF9300D040
:1005400000D0CDB7DEB77C0180E2689F6001112446
:10055000960122533C4FD9011B969C91917121F039
:10056000842F827409F097C0142FF701628B809159
:10057000000190910101A0910201B09103018687D1
:100580009787A08BB18BF601E253FC4F44895589C4
:1005900060E070E0BA0155274427D70157964D9384
:1005A0005D936D937C935A97828D938DA0E0B0E01C
:1005B000482B592B6A2B7B2BD70157964D935D9374
:1005C0006D937C935A97D9011B968C91887159F43D
:1005D000848D958DA68DB78DF701838B948BA58B1C
:1005E000B68B81E012C0803109F055C097012D5EB5
:1005F0003F4FD7015B968D919C915C970E94EE16C0
:10060000882309F448C084E0F7018583812F8F7027
:10061000D70114968C931497F701168217821086CF
:1006200011861A961D921D921D921C921D9716FFFF
:1006300034C015968C91813071F511FF2CC0F701F3
:100640004389548965897689452B462B472B09F4C4
:1006500061C040E050E0BA01C7010E944C198823F4
:10066000D1F0F7018788908CA18CB28CC38CD48C8C
:1006700082E090E0A0E0B0E0F60180839183A28365
:10068000B3839E012F5F3F4FB501A401C6010E94B5
:100690006A16811104C080E03DC081E03BC000E0EB
:1006A00010E09801B501A401C6010E94CA15882373
:1006B00091F389809A80AB80BC80D60157968C914B
:1006C000803129F088EF9FEFAFEFBFE004C088EFE3
:1006D0009FEFA0E0B0E088169906AA06BB0688F254
:1006E000D70157961D921D921D921C925A97F701A1
:1006F000138A148A158A168A848180688483C701C4
:100700000E940E19882339F240E050E0BA01C70177
:100710000E944C190F900F900F900F90DF91CF9186
:100720001F910F91FF90EF90DF90CF90BF90AF900F
:100730009F908F900895CF93DF93EC010E940E1944
:10074000882311F01D8281E0DF91CF9108953F92BF
:100750004F925F926F927F928F929F92AF92BF92D1
:10076000CF92DF92EF92FF920F931F93CF93DF937D
:10077000CDB7DEB72C970FB6F894DEBF0FBECDBF56
:100780005C01DC015B968D909C905C971696CD90F9
:10079000DD90ED90FC901997C114D104E104F104AF
:1007A00039F0BFEFCB1ADB0AEB0AFB0A312C07C08A
:1007B000F401C080D180E280F38033243394F401CB
:1007C00081859285A385B4859C01AD012F5F3F4F44
:1007D0004F4F5F4F29873A874B875C872601370148
:1007E0001D821E821F821886F40181859285A38551
:1007F000B4852D813E814F815885281739074A07D6
:100800005B0708F063C089859A85AB85BC858C152C
:100810009D05AE05BF0550F482E0C82ED12CE12C19
:10082000F12C92E0492E512C612C712C9E012F5FEE
:100830003F4FB701A601C4010E946A16882309F43C
:1008400045C089819A81AB81BC81892B8A2B8B2BF6
:1008500041F0260137019FEF491A590A690A790ABE
:1008600005C0C414D504E604F70491F02D813E813F
:100870004F8158852F5F3F4F4F4F5F4F2D833E83F2
:100880004F8358873FEFC31AD30AE30AF30AACCF6A
:100890000FEF1FEF2FEF3FE0B301A201C4010E9451
:1008A000CA15882399F0D50116964D915D916D91E9
:1008B0007C911997411551056105710549F0930126
:1008C0008201C4010E94CA15811102C080E02AC0C1
:1008D000D50116964D925D926D927C9219973320B8
:1008E00051F0D301C2010196A11DB11DF401808315
:1008F0009183A283B383F5018789908DA18DB28DF9
:10090000892B8A2B8B2B69F4D50157964D925D92DA
:100910006D927C925A9714968C91149780681496D5
:100920008C9381E02C960FB6F894DEBF0FBECDBF3E
:10093000DF91CF911F910F91FF90EF90DF90CF90BB
:10094000BF90AF909F908F907F906F905F904F90EF
:100950003F9008958FB7F894809160038FBF0895FA
:1009600061E0FC0184810E94601480915F03811129
:1009700010925F0308958EBD00000DB407FEFDCFF9
:100980008EB508958FEF0C94BB040F931F93CF93F4
:10099000DF93EB010E942B158B010E94C2048F3F55
:1009A00049F00E942B15601B710B6C177D07A8F393
:1009B00080E001C081E0DF91CF911F910F910895F8
:1009C000CF93DF93EC018E81882389F08F81988506
:1009D0009C012F5F3F4F38872F838230924018F45D
:1009E0000E94C204F3CFCE010E94B0041E82DF91A8
:1009F000CF9108958CBD9DBD0895CF93DF93EC01F9
:100A000080915F03811109C081E080935F03809131
:100A1000B5069091B6060E94FA0460E08C81DF91E1
:100A2000CF910C946014CF92DF92FF920F931F939B
:100A3000CF93DF9300D000D0CDB7DEB76C01F62E98
:100A400029833A834B835C830E94E004C6010E94A1
:100A5000FD046CE271E0C6010E94C5048F2D806424
:100A60000E94BB0408E110E05C814B813A8129813E
:100A7000DA01C901002E04C0B695A7959795879510
:100A80000A94D2F729833A834B835C830E94BB0488
:100A90000850110929813A814B815C81083F8FEF11
:100AA000180731F7FF2029F0E8E0FE1204C087E8BC
:100AB00003C085E901C08FEF0E94BB0410E00E94D3
:100AC000C204F601828787FF04C01F3F11F01F5F39
:100AD000F6CF0F900F900F900F90DF91CF911F9155
:100AE0000F91FF90DF90CF900895AF92BF92CF9279
:100AF000DF92EF92FF920F931F93CF93DF93EC015E
:100B00006901C801820F931F8130924008F070C0C4
:100B10008E81882371F088819981AA81BB814817D1
:100B200059076A077B0729F48F819885C816D9066B
:100B3000B0F5488359836A837B838B85833039F092
:100B400089E0440F551F661F771F8A95D1F79A01D8
:100B5000AB0161E1CE010E941305882319F083E007
:100B60008D8346C00E942B155B010E94C2048A87B8
:100B70008F3F49F40E942B156A197B096D32714031
:100B8000A0F38FE003C08E3F31F08DE08D83CE0166
:100B90000E94B0042DC018861F8281E08E838F8151
:100BA00098858C159D0540F40E94C2048F8198851C
:100BB000019698878F83F3CF6701E00EF11ECE1464
:100BC000DF0431F00E94C204F60181936F01F7CF78
:100BD0008F819885080F191F18870F8389858823AF
:100BE00019F00115124048F0CE010E94E00405C042
:100BF000CE010E94B00480E001C081E0DF91CF917E
:100C00001F910F91FF90EF90DF90CF90BF90AF902A
:100C10000895EF92FF920F931F93CF93DF93EC0110
:100C20007901411551056105710511F482E13CC05E
:100C30008B85833039F089E0440F551F661F771F7D
:100C40008A95D1F79A01AB0168E1CE010E941305A4
:100C5000882311F084E028C08EEF0E94BB04870136
:100C60008EEFF81AF80181918F010E94BB040E15D6
:100C70001F05C1F78FEF0E94BB048FEF0E94BB04DA
:100C80000E94C2048A878F71853031F081E18D83A3
:100C9000CE010E94B00409C068E572E0CE010E9456
:100CA000C504811107C085E18D83CE010E94B00487
:100CB00080E013C020E030E0A9016DE0CE010E9489
:100CC0001305811104C00E94C204882311F084E13D
:100CD000EBCFCE010E94B00481E0DF91CF911F9154
:100CE0000F91FF90EF900895FC01DB0112968D911A
:100CF0009C9113979383828383E391E09183808314
:100D000014968C911497848315968C9115978583EE
:100D100016964D915D916D917C91199746835783FD
:100D2000608771871A964D915D916D917C911D97A9
:100D300042875387648775871E964D915D916D91AB
:100D40007C91519746875787608B718B52968C9117
:100D50005297828B53964D915D916D917C915697F0
:100D6000438B548B658B768B57964D915D916D912E
:100D70007C915A97478B508F618F728F5B968D91C4
:100D80009C915C97948F838F0895EF92FF920F93BD
:100D90001F93CF93DF93EC017B018A011B821A82A0
:100DA00088EE93E0A0E0B0E08C839D83AE83BF83A8
:100DB00081E591E0998388838DE190E00E94322B58
:100DC0009A8F898F009779F02DE1F701DC0101906E
:100DD0000D922A95E1F74CE050E0B801CE010C9657
:100DE0000E944B2D188EDF91CF911F910F91FF9094
:100DF000EF9008952F923F924F925F926F927F9261
:100E00008F929F92AF92BF92CF92DF92EF92FF921A
:100E10000F931F93CF93DF9300D0CDB7DEB7FC01C4
:100E20008581882309F4D9C0848180FFD6C021E060
:100E30002A83438954896589768982859385A48527
:100E4000B585481759076A077B0709F41A826F01AD
:100E50003A81832F90E0DE0111964D013F01B6E00B
:100E60006B0E711C892B09F47DC0D6011A964D9129
:100E70005D916D917C911D975A01B1E0BB22F60105
:100E800025811A012B0189E05694479437942794C1
:100E90008A95D1F7838D948D223061F4FC01828D87
:100EA000938DA48DB58DBC01CD01620D731D841D84
:100EB000951D45C0DC0114961C9111501221A114FE
:100EC000B104D1F4111118C0452B462B472B51F416
:100ED000F6018789908DA18DB28D86839783A08737
:100EE000B1870AC0468157816085718593010E9450
:100EF0006A16882309F471C0F601238D348D86812A
:100F00009781A085B1850297A109B109AC01BD0106
:100F1000F901058404C0440F551F661F771F0A940A
:100F2000D2F786859785A089B189840F951FA61F62
:100F3000B71FBC01CD01610F711D811D911DD6012F
:100F400014962C9126FF14C000910001109101010C
:100F50002091020130910301601771078207930706
:100F600051F506C0FA81FF23C1F1898190E037C0B5
:100F700040E00E948115882381F1F501E253FC4F86
:100F8000D401CF010196E817F90719F021912D93AB
:100F9000FACFEFEF8E1A9E0AF60182859385A4851B
:100FA000B5850196A11DB11D82879387A487B5875A
:100FB00080E090E057CF740101E010E09501AB01B3
:100FC000BC018091CE059091CF050E9475058823C4
:100FD00021F0BFEF8B1A9B0ADFCF8FEF9FEF0F90AF
:100FE0000F90DF91CF911F910F91FF90EF90DF90C5
:100FF000CF90BF90AF909F908F907F906F905F90B9
:101000004F903F902F900895FC01818D928D009715
:1010100011F00C94FA068FEF9FEF08950F931F9332
:10102000CF93DF93FC01818D928D0097B9F0EF0192
:101030000E94FA068C010F3F8FEF180791F0898DFF
:101040009A8DFC014285538564857585415051090F
:10105000610971090E944C19C80105C080E090E047
:1010600002C08FEF9FEFDF91CF911F910F910895F5
:101070001F920F920FB60F9211242F933F934F930D
:101080005F936F937F938F939F93AF93BF93EF93F0
:10109000FF938091B900887F803609F49CC068F581
:1010A000883209F45BC090F4803109F454C038F4FC
:1010B000882309F4F6C0883009F44DC0F6C08831A1
:1010C00009F44CC0803209F45DC0EFC0803409F4EB
:1010D00068C048F4803309F455C0883309F0E5C08E
:1010E0008093A703D8C0803509F44FC0883509F430
:1010F0005DC0883409F0D9C0D6C0883909F4C7C0AA
:10110000A8F4883709F467C038F4883609F463C056
:10111000803709F460C0C9C0883809F4B8C0803984
:1011200009F45FC0803809F0C0C05BC0803B09F49F
:1011300086C038F4803A09F466C0883A09F47FC062
:10114000B4C0803C09F4A7C0883C09F4A4C0883B23
:1011500009F48AC0AAC08091840310C09091A603AC
:101160008091A503981770F5E091A60381E08E0F9A
:101170008093A603F0E0EB57FC4F80818093BB0087
:1011800085EC86C08093A7038EC0E091A60381E022
:101190008E0F8093A6038091BB00F0E0EB57FC4FCD
:1011A00080839091A6038091A5036EC0E091A60371
:1011B00081E08E0F8093A6038091BB00F0E0EB5797
:1011C000FC4F80838091A80381116DC081E08093E2
:1011D000830384EA61C083E08093A90310925E03D5
:1011E000CFCF80915E03803208F051C0E0915E0362
:1011F00081E08E0F80935E038091BB00F0E0E25CA3
:10120000FC4F8083BDCF85EC8093BC001092A90376
:1012100080915E03803230F4E0915E03F0E0E25CA6
:10122000FC4F108260915E0370E0E0913C03F0910E
:101230003D038EE393E0099510925E0336C084E08F
:101240008093A90310923B0310923A03E091380374
:10125000F0913903099580913A03811105C081E02D
:1012600080933A0310921803E0913B0381E08E0FC4
:1012700080933B03F0E0E85EFC4F80818093BB00ED
:1012800090913B0380913A03981708F479CF85E851
:101290008093BC000AC085EC8093BC001092A90327
:1012A00004C01092A7030E94AE01FF91EF91BF917D
:1012B000AF919F918F917F916F915F914F913F91EE
:1012C0002F910F900FBE0F901F90189560931403ED
:1012D000709315038093160390931703DC01CB01E1
:1012E000845D9E4FAF4FBF4F8093100390931103C7
:1012F000A0931203B093130382E090E090930F0346
:1013000080930E030E942B1560930A0370930B03C6
:1013100080930C0390930D030895CF92DF92EF9288
:10132000FF920F931F930E942B15C0900A03D09039
:101330000B03E0900C03F0900D038B019C010C1942
:101340001D092E093F098091140390911503A09166
:101350001603B0911703083E134021053105D0F064
:101360000196A11DB11D8093140390931503A093C2
:101370001603B0931703B701A60148515C4F6F4F96
:101380007F4F40930A0350930B0360930C037093B9
:101390000D03C9CF409110035091110360911203C6
:1013A0007091130384179507A607B70788F1E0919A
:1013B0000803F0910903309759F1099561157105FA
:1013C0008105910519F00E94660922C080911403DD
:1013D00090911503A0911603B0911703845D9E4F61
:1013E000AF4FBF4F8093100390931103A09312034C
:1013F000B093130381E090E020910E0330910F032E
:10140000232B11F480E090E090930F0380930E0360
:101410006091140370911503809116039091170346
:101420001F910F91FF90EF90DF90CF9008954F9212
:101430005F926F927F928F929F92AF92BF92CF9264
:10144000DF92EF92FF920F931F93CF93DF934B01A5
:101450005C018091040390910503A0910603B09173
:10146000070388169906AA06BB0609F4C2C08CE3D6
:10147000C82ED12CE12CF12CC501B401A701960195
:101480000E94EC276093F002CA01B901A7019601FE
:101490000E94EC276093F102CA01B90128E130E013
:1014A00040E050E00E94EC2769017A016093F2026B
:1014B000CA01B9016C5F7F4F8F4F9F4F27E030E02B
:1014C00040E050E00E94EC276F5F6093F302412CF4
:1014D000512C320140E004E610E0C0E9D1E0242FB5
:1014E00030E02E54384FF901E370FF27309789F42C
:1014F000C901B8010E94042B892B31F4C901BE0136
:101500000E94042B892B29F48EE691E0A0E0B0E044
:1015100004C08DE691E0A0E0B0E0480E591E6A1EBE
:101520007B1ED301C201AA27BB27C816D906EA062B
:10153000FB0610F04F5FD3CF4093F602309799F43B
:10154000C90164E670E00E94042B892B39F4C901BB
:1015500060E971E00E94042B892B29F48EE691E06A
:10156000A0E0B0E004C08DE691E0A0E0B0E0481A51
:10157000590A6A0A7B0AC418D508E608F708C9019F
:1015800064E670E00E94042BEC01C90160E971E09F
:101590000E94042BA1E1B1E020E0213039F4309722
:1015A00049F4209729F4009729F402C04C9103C014
:1015B0004DE101C04CE150E060E070E0C416D5069A
:1015C000E606F70640F0C41AD50AE60AF70A2F5FC6
:1015D00011962C3011F72F5F2093F502C394C0921F
:1015E000F4028092040390920503A0920603B09245
:1015F0000703DF91CF911F910F91FF90EF90DF9044
:10160000CF90BF90AF909F908F907F906F905F90A2
:101610004F900895DC01E0E0615038F08D91E827AB
:10162000F0E0E85CFE4FE491F7CF8E2F0895FC01C7
:1016300090810180F281E02DF8948181892B818352
:101640002281892F809528232283A7E0B0E011977B
:10165000F1F7218182238183A3E2B0E01197F1F7B2
:1016600080817894EFECF0E03197F1F7982381E0F6
:1016700009F480E00895FC0190810180F281E02D61
:10168000892F809560FF12C0F89422818223828383
:101690008181892B8183A3E2B0E01197F1F78281E8
:1016A000982B9283789487ED90E011C0F894228172
:1016B000822382838181892B8183AFEFB0E01197F0
:1016C000F1F78281982B928378948FE090E00197D4
:1016D000F1F70895CF92DF92EF92FF920F931F934D
:1016E000CF93DF931F92CDB7DEB76C01E62E08E0F3
:1016F00010E0FF24F39461E08F2D8E2109F460E067
:10170000C60149830E943B0BFF0C0150110949811E
:101710000115110581F7411115C0F894D6011196F4
:10172000ED91FC91129791818C9180958923818311
:101730001196ED91FC91129792818C91809589235D
:10174000828378940F90DF91CF911F910F91FF903A
:10175000EF90DF90CF900895CF92DF92EF92FF92BB
:101760000F931F93CF93DF931F92CDB7DEB78C01FA
:10177000F62E40E065E579830E946A0BCF2C7981D3
:10178000D72E760188E0E80EF11CF60161916F0119
:1017900040E0C8010E946A0BCE14DF04B1F70F903D
:1017A000DF91CF911F910F91FF90EF90DF90CF903D
:1017B0000895FC0190810180F281E02DF8948181EF
:1017C000292F20958223818378948DE743E050E090
:1017D000815021F1DA011197F1F730813923C1F3FA
:1017E000F8948281822382838181892B81837894FA
:1017F000ABE7B7E01197F1F7F894818128232183B3
:10180000A3E1B1E01197F1F78081982381E009F01D
:1018100080E07894E3E6F6E03197F1F708954F928F
:101820005F926F927F928F929F92AF92BF92CF9270
:10183000DF92EF92FF92CF93DF9300D000D0CDB72D
:10184000DEB729833A834B835C8323E333E948E89B
:1018500053E40E9460289B01AC0163E373E98AEBC7
:1018600093E40E94CC286B017C0120E030E040E84A
:101870005FE30E945F284B015C0126E335EE4CEFED
:1018800050EC0E942E272B013C01C701B6010E949B
:10189000722928E036EE40EA50E40E942E279B0190
:1018A000AC01C301B2010E9460282B013C01A701D9
:1018B000960160E070E080E89FE30E94CC289B01E5
:1018C000AC0160E070E080E89FE30E945F2826E0C2
:1018D00031E845E351E40E942E279B01AC0160E012
:1018E00070E080E291E40E94CA2920E030E040E804
:1018F0005FE30E945F2822E239E544E154EB0E9455
:101900002E279B01AC01C301B2010E9460286B012C
:101910007C0122E934E74FE550ECC501B4010E9497
:101920002E279B01AC0160E070E080E291E40E9410
:10193000CA2920E030E040E85FE30E945F2820E70A
:101940003FE345E05CE30E942E279B01AC01C70109
:10195000B6010E94602822EA3DE540E450E40E947E
:10196000602820E030E040E450E40E945F289B01C2
:10197000AC0160E070E080E291E40E94CA29298114
:101980003A814B815C810E942E2724E13CE54CE1A9
:101990005FE30E94CC280E9482296B017C0128E42D
:1019A00031EE41E753E40E942E274B015C01A70171
:1019B000960169EC76E78CE891E40E945F289B0130
:1019C000AC01C501B4010E94CC280F900F900F907C
:1019D0000F90DF91CF91FF90EF90DF90CF90BF906D
:1019E000AF909F908F907F906F905F904F900895F1
:1019F000AF92BF92CF92DF92EF92FF920F931F931D
:101A0000CF93DF938B01BC0180912D0790912E071E
:101A10000E94AC0B40E06EEB80912D0790912E0759
:101A20000E946A0BE801680189E0C80ED11CA090F1
:101A30002D07B0902E0788E0E82EF12C01E010E091
:101A4000C5010E94170B8111102B000F81E0E81ACD
:101A5000F108B1F71993CC15DD0549F780912D07F1
:101A600090912E070E94D90B91E0813009F090E00F
:101A7000892FDF91CF911F910F91FF90EF90DF9011
:101A8000CF90BF90AF900895E0EDF5E0A089B189C7
:101A900082E08C93A485B5851C92A685B7858FECD2
:101AA0008C93108EA489B58986E08C93A289B38922
:101AB0008C9180618C93A289B3898C9188608C937E
:101AC000A289B3898C9180688C930288F389E02D78
:101AD00080818F7D808308950F931F93CF93DF9331
:101AE0008C01C0E0D0E0F801EC0FFD1F649166238B
:101AF00071F0E091D005F091D1050190F081E02DD9
:101B000080ED95E00995892B11F02196ECCFCE015F
:101B1000DF91CF911F910F9108958F929F92AF9275
:101B2000BF92CF92DF92EF92FF92CF93DF93C82FB5
:101B300087EB96E09093CF058093CE05CC2369F197
:101B4000C53010F080E00DC140E060E070E0CB01F6
:101B50000E9481158823B1F320E1C29FC0011124A6
:101B600082549C4FFC01E254FE4F20812F7751F7A5
:101B70003C964081518162817381443651056105F3
:101B8000710500F33497C080D180E280F380C114E6
:101B9000D104E104F10421F4D5CFC12CD12C76017C
:101BA00040E0C701B6010E948115882359F2809157
:101BB000D9039091DA038115924021F6A091DE03BA
:101BC000AA2309F4BFCF6091DC037091DD03611596
:101BD000710509F4B7CF2091DB03222309F4B2CFBA
:101BE000A093D5062093C70680E030E0E1E0F0E066
:101BF000C82FAF01082E02C0440F551F0A94E2F708
:101C00002417350741F0982F8F5F983089F789E0C6
:101C10008093D00697CF8093D0062091E403309133
:101C2000E5032115310519F040E050E008C020918E
:101C3000F2033091F3034091F4035091F5032093A4
:101C4000C8063093C9064093CA065093CB06460196
:101C50005701860E971EA11CB11C8092D606909249
:101C6000D706A092D806B092D906E091DF03F09192
:101C7000E003F093DC06E093DB06B0E00E940E2860
:101C8000860E971EA81EB91E8092DD069092DE0673
:101C9000A092DF06B092E00685E0EE0FFF1F8A9566
:101CA000E1F7E150FE4FEF2FFF27E6958E0E9F1EC6
:101CB000A11CB11C8092D1069092D206A092D306AC
:101CC000B092D4062091E1033091E2032115310551
:101CD00021F0A90160E070E008C04091EE0350914E
:101CE000EF036091F0037091F103D701C6018819E9
:101CF0009909AA09BB09840F951FA61FB71F04C025
:101D0000B695A79597958795CA95D2F78093CC06F7
:101D10009093CD06A093CE06B093CF06853F2FE0DB
:101D20009207A105B10510F48CE018C0853F9F4FC4
:101D3000A105B10510F480E111C08091FA039091E2
:101D4000FB03A091FC03B091FD038093DD0690930B
:101D5000DE06A093DF06B093E00680E28093DA0609
:101D600081E0DF91CF91FF90EF90DF90CF90BF9017
:101D7000AF909F908F900895382F2091CD03909130
:101D8000CC03213208F049C08091A9038111FCCF16
:101D900042E04093A9033093A8033FEF3093A70399
:101DA0001092A6032093A503ACEAB3E045E853E004
:101DB000FA013E2F341B321718F43D913193F9CFBD
:101DC0001092840320918403990F922B90938403A3
:101DD00090918303913061F4109283039091840376
:101DE0009093BB009091BC0093FDF8CF95EC01C09F
:101DF00095EE9093BC009091A9039230E1F39091FD
:101E0000A7039F3F79F08091A703803241F0809132
:101E1000A703803331F084E005C081E003C082E095
:101E200001C083E01092AB031092CD031092AA037D
:101E3000089590913B0721E02093AA039093CC034F
:101E40001092AB031092CD03682F80E097E00E94C0
:101E50003C0281E00C94BC0EAF92BF92CF92DF9215
:101E6000EF92FF920F931F93CF93DF931F92CDB703
:101E7000DEB75C01D62EE72EFC018585811105C0F9
:101E8000C5010E94D90B811106C0F5011386158684
:101E9000148680E065C040E060EFC5010E946A0BD7
:101EA00001E0F12CC12C11E0C5010E94170B682F35
:101EB000C50169830E94170B6981613019F4813073
:101EC000B9F433C04F2D50E068131BC0F501838572
:101ED000181730F4E40FF51F8381802349F402C002
:101EE000181731F060E0193058F4F501148708C074
:101EF000F501EF0DF11D8381802B838361E009C023
:101F0000C12EF501E40FF51F9381802F8095892361
:101F10008383C5010E943B0B1F5F000F11F4F394F4
:101F200001E0F7E0FF1508F0BFCF113408F4ADCFA2
:101F3000F501C386C11002C081E08587F501838168
:101F4000882309F4A2CFD5011396ED2DFE2D95011E
:101F5000255F3F4F8D918193A217B307D9F781E099
:101F60000F90DF91CF911F910F91FF90EF90DF9035
:101F7000CF90BF90AF9008950F931F93CF93DF93AF
:101F8000CDB7DEB729970FB6F894DEBF0FBECDBF31
:101F9000FC012081203161F18C0180912D0790910D
:101FA0002E070E94D90B882309F1BE016F5F7F4F76
:101FB000C8010E94F80C8823C9F068E0CE010196A0
:101FC0000E940A0B9985891311C08D818F3361F0AE
:101FD00020F48F3159F489E00CC08F3519F08F3718
:101FE00039F004C08BE005C08AE003C080E001C086
:101FF0008CE029960FB6F894DEBF0FBECDBFDF91FF
:10200000CF911F910F910895CF93DF93CDB7DEB796
:1020100061970FB6F894DEBF0FBECDBFE0912D07DC
:10202000F0912E07138615861486DF011B96CF01CB
:1020300003961E92A817B907E1F7BE01665F7F4FAE
:10204000CF010E942C0F882341F067E0CE010A9651
:102050000E940A0B9989891729F060E070E08EEFE1
:1020600092EC59C080912D0790912E070E94D90BB8
:102070008823F1F1BE016F5F7F4FCE010A960E9467
:10208000F80C8823A9F168E0CE0101960E940A0BA2
:10209000998589132DC0698148E0649FB00111249E
:1020A0008A81282F30E0322F2227330F330F330F4E
:1020B000262B372B8A858031C9F4688570E08F81A3
:1020C000AB01481B5109CA019695982F882797950F
:1020D00087950E94042B60517109207F53E0220FE5
:1020E000331F5A95E1F7620F731F04C0B90102C094
:1020F00060E874EE613854EE75070CF4AECF072E2D
:10210000000C880B990B0E94CF2620E030E040E0C5
:102110005CE30E942E2761960FB6F894DEBF0FBED7
:10212000CDBFDF91CF910895E0910C07F0910D079D
:10213000DC0114964D915C9115976D917C91028014
:10214000F381E02D8CE097E009949091A90391111F
:10215000FCCF91E09093A9039093A8032FEF2093D5
:10216000A7031092A6039093A503909384039091E4
:102170008403880F892B80938403809183038130AB
:1021800061F410928303809184038093BB0080915B
:10219000BC0083FDF8CF85EC01C085EE8093BC00C8
:1021A0008091A9038130E1F38091A603823018F475
:1021B0008091A60301C082E0A5E8B3E023E633E006
:1021C000F9019E2F921B981718F49D919193F9CFC6
:1021D00010926203809361030895CF92DF92EF9291
:1021E000FF920F931F93CF93DF93CDB7DEB7629724
:1021F0000FB6F894DEBF0FBECDBF8C01CB01F80146
:1022000011821082138212821582148250E09E0184
:102210002F5F3F4F6901B9010E948826F6010190A6
:102220000020E9F731977F01EC18FD08F801808163
:102230009181009729F0228133812E153F0508F501
:10224000B7016F5F7F4F0E945F2CF801009759F034
:1022500091838083F382E28224813581232B89F468
:10226000FC0110820EC080819181009711F00E94C4
:10227000C72BF801118210821582148213821282F8
:1022800008C0F801F582E482B601808191810E9444
:10229000442D62960FB6F894DEBF0FBECDBFDF911E
:1022A000CF911F910F91FF90EF90DF90CF90089505
:1022B0004F925F926F927F92EF92FF920F931F93D4
:1022C000CF93DF93CDB7DEB7A1970FB6F894DEBFFB
:1022D0000FBECDBF7C01FA01CB0119A2223008F458
:1022E0002AE08E010F5D1F4F422E512C612C712C64
:1022F000BF01A30192010E94EC27F901CA0101501C
:1023000011096A3014F4605D01C0695CD8016C93F6
:10231000232B242B252B61F7B801C7010E94AE1B8C
:10232000A1960FB6F894DEBF0FBECDBFDF91CF915F
:102330001F910F91FF90EF907F906F905F904F9063
:1023400008954F925F926F927F928F929F92AF9279
:10235000BF92CF92DF92EF92FF92CF93DF93EC0187
:102360006A017B01B22E9A01AB01C701B6010E943E
:102370001A2A882319F064EE72E027C0260137017B
:10238000E89477F82FEF3FEF4FE75FE7C301B20123
:102390000E941A2A81110DC02FEF3FEF4FE75FE730
:1023A000C301B2010E94C82618161CF468EE72E040
:1023B0000CC02FEF3FEF4FE75FE4C701B6010E946B
:1023C0006D2918169CF46CEE72E0CE01DF91CF916E
:1023D000FF90EF90DF90CF90BF90AF909F908F9045
:1023E0007F906F905F904F900C94AE1B2FEF3FEF5C
:1023F0004FE75FECC701B6010E94C82687FDE3CF17
:1024000020E030E0A901C701B6010E94C82687FF7D
:102410000EC0E881F9810190F081E02D6DE2CE01DE
:1024200009954C01F7FAF094F7F8F09402C0812C6A
:10243000912CA12C60E070E080E09FE3AB1441F0B0
:1024400020E030E040E251E40E94CC28A394F6CF93
:102450009B01AC01C701B6010E9460282B013C0121
:102460000E943E296B017C010E94CD269B01AC019C
:10247000C301B2010E945F282B013C012AE0B70191
:10248000A601CE010E9458117C01E80CF91CBB206A
:1024900051F0E881F9810190F081E02D6EE2CE01EA
:1024A0000995E80EF91EDB2CDD2029F120E030E053
:1024B00040E251E4C301B2010E942E272B013C01EE
:1024C0000E943E294B01A12CB12C2AE0B501A401A8
:1024D000CE010E945811E80EF91EC501B4010E94F8
:1024E000CD269B01AC01C301B2010E945F282B01E4
:1024F0003C01DA94D9CFC701DF91CF91FF90EF90E3
:10250000DF90CF90BF90AF909F908F907F906F9013
:102510005F904F9008950F931F93CF93DF93EC013B
:1025200022E00E94A1118C01CE010E94C31B800FEA
:10253000911FDF91CF911F910F910895FC01538D51
:10254000448D252F30E0842F90E0821B930B54178D
:1025500010F0CF96089501970895FC01918D828D1A
:10256000981761F0828DDF01A80FB11D5D968C91E7
:10257000928D9F5F9F73928F90E008958FEF9FEFF2
:102580000895FC01918D828D981731F0828DE80FAE
:10259000F11D858D90E008958FEF9FEF0895FC0168
:1025A000918D228D892F90E0805C9F4F821B910935
:1025B0008F739927089580ED95E00E94CF1221E056
:1025C000892B09F420E0822F0895FC01848DDF011E
:1025D000A80FB11DA35ABF4F2C91848D90E0019696
:1025E0008F739927848FA689B7892C93A089B18985
:1025F0008C9180648C93938D848D981306C002888F
:10260000F389E02D80818F7D80830895EF92FF9282
:102610000F931F93CF93DF93EC0181E0888F9B8D05
:102620008C8D981305C0E889F989808185FD24C0C7
:10263000F62E0B8D10E00F5F1F4F0F731127E02E4A
:102640008C8DE8120CC00FB607FCFACFE889F98927
:10265000808185FFF5CFCE010E94E512F1CF8B8DF1
:10266000FE01E80FF11DE35AFF4FF0820B8FEA895C
:10267000FB898081806207C0EE89FF896083E889D9
:10268000F98980818064808381E090E0DF91CF913F
:102690001F910F91FF90EF900895CF93DF93EC017E
:1026A000888D8823C9F0EA89FB89808185FD05C072
:1026B000A889B9898C9186FD0FC00FB607FCF5CFAC
:1026C000808185FFF2CFA889B9898C9185FFEDCFF4
:1026D000CE010E94E512E7CFDF91CF91089580E00F
:1026E00090E0892B29F00E94DB1281110C940000EC
:1026F0000895833081F028F4813099F08230A1F080
:1027000008958730A9F08830B9F08430D1F48091F1
:1027100080008F7D03C0809180008F778093800040
:10272000089584B58F7702C084B58F7D84BD0895E8
:102730008091B0008F7703C08091B0008F7D80932F
:10274000B00008950E94292D80914B078823A9F19C
:1027500040910001509101016091020170910301CB
:102760002EEC33E08091CE059091CF050E940906B2
:10277000811102C080E0089540914C0750914D07AF
:1027800060914E0770914F07411551056105710524
:1027900091F02EEC33E08091CE059091CF050E9410
:1027A0000906882339F310924C0710924D071092B6
:1027B0004E0710924F0710924B0781E008951F9229
:1027C0000F920FB60F9211242F933F934F935F9365
:1027D0006F937F938F939F93AF93BF93EF93FF93E9
:1027E00080ED95E00E94E512FF91EF91BF91AF91CE
:1027F0009F918F917F916F915F914F913F912F9119
:102800000F900FBE0F901F9018951F920F920FB64A
:102810000F9211242F938F939F93EF93FF93E09147
:10282000E005F091E1058081E091E605F091E70592
:1028300082FD12C090818091E9058F5F8F73209196
:10284000EA05821751F0E091E905F0E0E053FA4F14
:10285000958F8093E90501C08081FF91EF919F9151
:102860008F912F910F900FBE0F901F901895CF93BF
:10287000DF93282F30E0F901EC57FD4F8491F901E7
:10288000EA5AFD4FD491F901EE5BFD4FC491CC2380
:1028900091F081110E947913EC2FF0E0EE0FFF1FF1
:1028A000E85CFD4FA591B491EC91ED2381E090E0BF
:1028B00021F480E002C080E090E0DF91CF910895A4
:1028C0001F93CF93DF93282F30E0F901EC57FD4F92
:1028D0008491F901EA5AFD4FD491F901EE5BFD4F65
:1028E000C491CC23C9F0162F81110E947913EC2FCB
:1028F000F0E0EE0FFF1FE658FD4FA591B4918FB7A2
:10290000F894111105C09C91ED2FE095E92302C0C8
:10291000EC91ED2BEC938FBFDF91CF911F91089538
:10292000CF93DF9390E0FC01EA5AFD4F2491FC0124
:10293000EE5BFD4F8491882361F190E0880F991F31
:10294000FC01E651FF4FC591D491FC01E658FD4FC3
:10295000A591B491611109C09FB7F8948881209521
:1029600082238883EC912E230BC0623061F49FB7E1
:10297000F8943881822F809583238883EC912E2BC5
:102980002C939FBF06C08FB7F894E8812E2B288325
:102990008FBFDF91CF9108953FB7F894809155078D
:1029A00090915607A0915707B091580726B5A89B5C
:1029B00005C02F3F19F00196A11DB11D3FBFBA2FD1
:1029C000A92F982F8827820F911DA11DB11DBC0131
:1029D000CD0142E0660F771F881F991F4A95D1F7F6
:1029E00008958F929F92AF92BF92CF92DF92EF9213
:1029F000FF926B017C010E94CC144B015C01C1145D
:102A0000D104E104F104F1F00E94CC14DC01CB010B
:102A100088199909AA09BB09883E9340A105B10507
:102A200070F321E0C21AD108E108F10888EE880E9F
:102A300083E0981EA11CB11CC114D104E104F1046F
:102A400019F7DDCFFF90EF90DF90CF90BF90AF9060
:102A50009F908F9008952FB7F894609151077091CF
:102A6000520780915307909154072FBF08951F92EA
:102A70000F920FB60F9211242F933F938F939F9332
:102A8000AF93BF938091510790915207A091530744
:102A9000B09154073091500723E0230F2D3720F4D5
:102AA0000196A11DB11D05C026E8230F0296A11DA8
:102AB000B11D209350078093510790935207A09324
:102AC0005307B09354078091550790915607A091F2
:102AD0005707B09158070196A11DB11D8093550766
:102AE00090935607A0935707B0935807BF91AF91A3
:102AF0009F918F913F912F910F900FBE0F901F903C
:102B000018958F929F92AF92BF92EF92FF920F9380
:102B10001F93CF934B015C01C42F809100019091D2
:102B20000101A0910201B091030188159905AA0540
:102B3000BB0501F10E94A413811102C080E020C0F6
:102B40008EECE82E83E0F82E00E012E020E030E08A
:102B5000B501A4018091CE059091CF050E94750525
:102B6000882361F38092000190920101A0920201FA
:102B7000B092030180914B07C82BC0934B0781E0B3
:102B8000CF911F910F91FF90EF90BF90AF909F90CA
:102B90008F9008954F925F926F927F928F929F9243
:102BA000AF92BF92CF92DF92EF92FF920F931F935B
:102BB000CF93DF93EC016A017B0128013901423098
:102BC00051056105710510F480E073C089859A850F
:102BD000AB85BC850196A11DB11D84179507A6077D
:102BE000B70790F38B889C88AD88BE888F89803129
:102BF00029F4BB27AF2D9E2D8D2D09C0DB01CA0105
:102C000047E0B695A795979587954A95D1F7880E91
:102C1000991EAA1EBB1E8091000190910101A091F6
:102C20000201B091030188169906AA06BB0679F441
:102C30008F898031A1F4DD24EE24FF24C601880FA2
:102C4000991FFC01E253FC4F5182408219C040E0C1
:102C5000C501B4010E9481158111EACFB5CFE89476
:102C6000C7F8DD24EE24FF24C601880F991F880FC2
:102C7000991FFC01E253FC4F4082518262827382B1
:102C800080914B07816080934B078A89823080F066
:102C90008D819E81AF81B885880E991EAA1EBB1EAC
:102CA00080924C0790924D07A0924E07B0924F072A
:102CB00081E0DF91CF911F910F91FF90EF90DF9016
:102CC000CF90BF90AF909F908F907F906F905F90CC
:102CD0004F9008958F929F92AF92BF92CF92DF92C2
:102CE000EF92FF920F931F93CF93DF93FC018185A7
:102CF0009285A385B4850196A11DB11D8417950702
:102D0000A607B70710F480E05CC083899489A58981
:102D1000B689C789C03129F4852E962EA72EBB24EB
:102D200009C04A015B01C7E0B694A79497948794C1
:102D3000CA95D1F7E9016A017B018F01BC01CD0180
:102D4000680D791D8A1D9B1D8090000190900101E6
:102D5000A0900201B0900301681579058A059B05D2
:102D600099F4F80187898031A9F4B701A6015527A4
:102D700066277727440F551FFA01E253FC4F8081E5
:102D80009181A0E0B0E018C040E00E94811581115F
:102D9000E8CFB9CFB701A6014F7755276627772728
:102DA000440F551F440F551FFA01E253FC4F808119
:102DB0009181A281B381BF7088839983AA83BB83E9
:102DC00081E0DF91CF911F910F91FF90EF90DF9005
:102DD000CF90BF90AF909F908F9008954F925F9249
:102DE0006F927F92AF92BF92CF92DF92EF92FF925B
:102DF0000F931F93CF93DF9300D000D0CDB7DEB7F2
:102E00008C0149835A836B837C835901C12CD12C5B
:102E10007601412C82E0582E612C712C49815A8117
:102E20006B817C819E012F5F3F4FC8010E946A1613
:102E3000882351F1D301C201F801058404C0880F31
:102E4000991FAA1FBB1F0A94D2F7C80ED91EEA1EEB
:102E5000FB1E49815A816B817C818789803129F0F1
:102E600088EF9FEFAFEFBFE004C088EF9FEFA0E0D7
:102E7000B0E0481759076A077B0780F2F501C08266
:102E8000D182E282F38281E00F900F900F900F9039
:102E9000DF91CF911F910F91FF90EF90DF90CF9036
:102EA000BF90AF907F906F905F904F9008954F923A
:102EB0005F926F927F92AF92BF92CF92DF92EF922A
:102EC000FF920F931F93CF93DF93CDB7DEB72B976E
:102ED0000FB6F894DEBF0FBECDBF7C01CE010196C8
:102EE0006C01FC0190E28BE08C0D91938E13FDCF71
:102EF000DA0130E047E09D91992339F19E3219F0D3
:102F0000EAE6F2E00AC04A3009F472C138E04AE069
:102F1000F2CF3196891709F46BC184918111F9CFF1
:102F2000431708F465C18FED890F8E3508F060C135
:102F300081E0830FF601E30FF11D3FE9390F3A31CC
:102F400008F490529083382FD6CF8981803209F4CB
:102F50004FC1B22E8B01DB015B968D919C915C97EA
:102F6000F701948F838F16961D921D921D921C92CD
:102F70001997FB011286138614861586712CF801A9
:102F800082859385A485B585438954896589768929
:102F900084179507A607B70708F061C025E0B69526
:102FA000A795979587952A95D1F7F82FFF706F2EE3
:102FB000D80115968C91823008F41AC1C8010E947C
:102FC000FA0697FD15C1F80182859385A485B5851C
:102FD0004F96A11DB11D82879387A487B587F0E224
:102FE0006F9EC0011124BC0162537C4F61157105B5
:102FF00009F4FEC0DB012C91222319F0253EC1F417
:1030000027C071100EC0F701628A409100015091F3
:103010000101609102017091030146875787608B1F
:10302000718BFC01E253FC4F8081811113C015C0EC
:103030004BE050E0C6010E942E2D892B09F09FCF56
:103040008B2D8073803309F4D3C04B2D662DCCC0FB
:103050007720C9F27724739492CF772473948B2DC1
:103060008271823109F0C4C07720D1F0D7011E9659
:103070006D917D918D919C91519741E00E948115B8
:10308000882309F4B5C0F7016289F0E26F9FB001AF
:10309000112462537C4F6115710509F079C0A8C0F5
:1030A000D80115968C91823009F4A2C0C8010E9403
:1030B000A703882309F49CC0D8015B96ED91FC918D
:1030C0005C9716964D905D906D907C901997B2E04C
:1030D0004B1A510861087108058404C0440C551C42
:1030E000661C771C0A94D2F786859785A089B189DA
:1030F000480E591E6A1E7B1EA480E1E04E1A51083C
:1031000061087108AA2009F10E94A413882309F418
:103110006FC0EEECF3E0119225E0EE3CF207D9F738
:10312000D301C2018A0D911DA11DB11D8093000123
:1031300090930101A0930201B093030180914B078A
:10314000816080934B07AA94DDCFD8015B96ED9107
:10315000FC915C9780E092E0A0E0B0E0058404C0C0
:10316000880F991FAA1FBB1F0A94D2F7F801438941
:10317000548965897689840F951FA61FB71F838B95
:10318000948BA58BB68BD70152961C926EEC73E094
:1031900080E2FB0111928A95E9F78BE0F601DB01F1
:1031A00001900D928A95E1F781E298E2DB01519658
:1031B0009C938E93509720E038E01F963C932E937B
:1031C0001E9753969C938E93529759969C938E93E9
:1031D000589757963C932E9356970E94A413882392
:1031E00039F04B2DF7016289C7010E94930201C09B
:1031F00080E02B960FB6F894DEBF0FBECDBFDF91F7
:10320000CF911F910F91FF90EF90DF90CF90BF90E3
:10321000AF907F906F905F904F900895CF93DF9322
:10322000EC018D818823A1F18C8187FF2DC06E85F3
:103230007F858889998941E00E948115882341F121
:10324000EA8980E2E89FF0011124DF01A253BC4F1C
:103250001097F1F08D81823050F44B895C896D8933
:103260007E895C964D935D936D937C935F978F8978
:10327000988DA98DBA8DE253FC4F938F828FB58BB9
:10328000A48B8C818F778C83DF91CF910C94A413C6
:1032900080E0DF91CF9108958F929F92AF92BF927D
:1032A000CF92DF92EF92FF920F931F93CF93DF9312
:1032B000EC018D81811102C080E077C00B891C89EF
:1032C0002D893E890417150726073707A8F36A01D9
:1032D0007B01823029F4CA86DB86EC86FD860DC030
:1032E000C114D104E104F10451F41E821F82188636
:1032F00019861A861B861C861D8681E056C08A8424
:103300009B84AC84BD84EB8DFC8D258530E0275FEC
:103310003F4FB501A4014150510961097109022EC5
:1033200004C076956795579547950A94D2F7D701CB
:10333000C6010197A109B10904C0B695A795979553
:1033400087952A95D2F784179507A607B70720F027
:1033500089288A288B2849F44F89588D698D7A8D60
:103360004E835F836887798704C0841B950BA60B07
:10337000B70B4C015D018E010A5F1F4F8114910450
:10338000A104B10409F4A7CF4E815F8168857985D6
:1033900098018B8D9C8D0E946A1691E0891A910884
:1033A000A108B1088111EACF87CFDF91CF911F919A
:1033B0000F91FF90EF90DF90CF90BF90AF909F90D4
:1033C0008F9008952F923F924F925F926F927F92CB
:1033D0008F929F92AF92BF92CF92DF92EF92FF9225
:1033E0000F931F93CF93DF9300D000D0CDB7DEB7FC
:1033F0008C015B011A01DC0115968C9115978130C7
:10340000C9F414968C9181FF15C082FF1BC0F8018E
:10341000438954896589768982859385A485B58594
:1034200084179507A607B70769F0C8010E944C19D1
:10343000811108C081E090E0F8019383828380E0ED
:1034400090E039C1610183C0D8015B968D919C9158
:103450005C97FC01248121502A013B0139E07694DC
:103460006794579447943A95D1F7722E74207A0155
:10347000F1E0FF22772009F476C080E092E08E1917
:103480009F0946018C159D0508F44C01D8015B96F7
:103490002D913C915C9716968D919D910D90BC91CC
:1034A000A02D0297A109B109F901058404C0880F74
:1034B000991FAA1FBB1F0A94D2F7468557856089BA
:1034C0007189840F951FA61FB71F9C01AD01270DA1
:1034D000311D411D511D29013A01811432E093062D
:1034E00009F088C08091000190910101A091020132
:1034F000B091030184159505A605B70559F48FEF22
:103500009FEFDC018093000190930101A0930201E1
:10351000B09303019501B301A2018091CE05909172
:10352000CF050E940906882309F484CF9EEFB91ABB
:10353000C818D908F80182859385A485B585880DBA
:10354000991DA11DB11D82879387A487B587D801D6
:103550001A964D915D916D917C911D97C114D10486
:1035600009F072CF87C0E114F10409F086CF1696F6
:103570004D915D916D917C911997411551056105B2
:10358000710559F457968D919D910D90BC91A02D88
:103590000097A105B10541F521C09E012F5F3F4F66
:1035A0000E946A16882309F44BCF89819A81AB81E6
:1035B000BC81F801238D348DF9012789203129F050
:1035C00048EF5FEF6FEF7FE004C048EF5FEF60E030
:1035D00070E084179507A607B70730F0C8010E946E
:1035E000A70381114ACF26CFF80186839783A0874E
:1035F000B18743CFE114F10429F5D8011A964D9112
:103600005D916D917C911D9753968D919D910D903B
:10361000BC91A02D481759076A077B0798F00E94B4
:10362000A413882309F406CF4092000150920101AF
:10363000609202017092030180914B078160809338
:103640004B0708C041E0C301B2010E9481158823E5
:1036500009F4F0CED501F701E253FC4FCF01880DFC
:10366000991DE817F90719F02D912193FACFA80CAD
:10367000B91C5ECF53968D919D910D90BC91A02D5C
:1036800084179507A607B70740F4F801438B548BBE
:10369000658B768B848180688483D80114968C91A5
:1036A00083FD02C0C10107C0C8010E940E19882312
:1036B00009F4C0CEF7CF0F900F900F900F90DF91CD
:1036C000CF911F910F91FF90EF90DF90CF90BF901F
:1036D000AF909F908F907F906F905F904F903F90B2
:1036E0002F900895CF93DF931F92CDB7DEB76983F4
:1036F00041E050E0BE016F5F7F4F0E94E2190F90E2
:10370000DF91CF910895CF92DF92EF92FF920F93C6
:103710001F93CF93DF936C017A018B01C0E0D0E05F
:10372000CE15DF0589F0D8016D918D01D601ED919F
:10373000FC910190F081E02DC6010995892B11F4CF
:103740007E0102C02196ECCFC701DF91CF911F917E
:103750000F91FF90EF90DF90CF9008956115710564
:1037600079F0FB0101900020E9F73197AF01461B8A
:10377000570BDC01ED91FC910280F381E02D09945F
:1037800080E090E008956CE871E00C94AE1B0F931C
:103790001F93CF93DF93EC010E94AE1B8C01CE01EF
:1037A0000E94C31B800F911FDF91CF911F910F913A
:1037B00008950C94AE1BCF93DF93CDB7DEB7C458FA
:1037C000D1090FB6F894DEBF0FBECDBF789484B593
:1037D000826084BD84B5816084BD85B5826085BD0D
:1037E00085B5816085BD80916E00816080936E009B
:1037F000109281008091810082608093810080918D
:10380000810081608093810080918000816080933D
:1038100080008091B10084608093B1008091B000FD
:1038200081608093B00080917A00846080937A00F8
:1038300080917A00826080937A0080917A00816022
:1038400080937A0080917A00806880937A00109249
:10385000C1001092B1061092B2061092B3061092F7
:10386000B40610926F0610927006109271061092B4
:1038700072060E942B156B017C014B015C0188EBE9
:10388000880E8BE0981EA11CB11C0E942B156C1594
:103890007D058E059F0528F086169706A806B906B1
:1038A000A0F780ED95E09093B0068093AF060E945C
:1038B000440D0E942B1560936F06709370068093E1
:1038C0007106909372066DE771E08091AF0690915A
:1038D000B0060E94D91B0E942B156B017C014B0185
:1038E0005C019AE0890E911CA11CB11C0E942B1551
:1038F0006C157D058E059F0528F086169706A8068F
:10390000B906A0F711E0109383060E948D090E946A
:1039100066090E94440D6FE871E080ED95E00E9419
:10392000C71B63EA71E080ED95E00E94D91B65EB4F
:1039300071E080ED95E00E94C71B80ED95E00E944C
:10394000C31B10926203109261031092AB0310929A
:10395000CD031092A9031093A8031092830361E092
:1039600082E10E94601461E083E10E946014809112
:10397000B9008E7F8093B9008091B9008D7F8093CC
:10398000B90088E48093B80085E48093BC0081E0AE
:103990000E94190F61E081E10E94901461E081E1D1
:1039A0000E946014E0912D07F0912E071386158672
:1039B0001486DF011B9633961E92AE17BF07E1F700
:1039C00010922B0710922C0711E0BE016F5F7F4F02
:1039D00080912D0790912E070E942C0F882309F4C7
:1039E0005FC067E0CE0101960E940A0B988589139B
:1039F000ECCF80912707811128C080912D079091ED
:103A00002E070E94D90BBE016F5F7F4F80912D075B
:103A100090912E070E94AC0B40E064EB80912D0743
:103A200090912E070E946A0B80912D0790912E078E
:103A30000E94170B082F80912D0790912E070E944E
:103A4000D90B002311F40C94892500912807CE018D
:103A500001960E94BC0F801718F48091280704C0BB
:103A6000CE0101960E94BC0F8093280780912B07FE
:103A70008F5F80932B078981883261F030F4803129
:103A800049F0823209F0A1CF05C08B3319F082349E
:103A900009F09BCF80912C078F5F80932C0795CFE7
:103AA0008CE580933B0761E081E10E94601481E036
:103AB00080933C076AE070E080E090E00E94F1149F
:103AC00080E10E94190F89E091E00E946C0D61E095
:103AD0008AE00E9490141092C2061092C0061092C2
:103AE000BD061092BC068AE08093BB060E942B158F
:103AF0008B0161E08091BB060E94901461E080918F
:103B0000BB060E946014FFB6F8948091F702811101
:103B100027C0ECE4F2E08491E0E6F2E09491E82F33
:103B2000F0E0EE0FFF1FE651FF4FA591B491EC912D
:103B3000E92321F461E08AE00E94601461E08AE0F8
:103B40000E9490148CB580618CBD8CB580648CBD56
:103B500061E08DE00E94901461E08BE00E9490147F
:103B60008091F7028F5F8093F702FFBE82E580931A
:103B7000B5061092B6068091B5069091B6060E94E1
:103B8000FA04FAE0FF2E8FEF0E94BB04FA94F110C2
:103B9000FACF87EB96E00E94FD0420E030E0A90117
:103BA00060E087EB96E00E941305F82E8093C10633
:103BB000B1E08B1749F00E942B15601B710B613D22
:103BC000774058F381E056C02AEA31E040E050E007
:103BD00068E087EB96E00E94130582FF03C0F09235
:103BE000C20610C0E4E0FE2E0E94C2048093C1060B
:103BF000FA94F110F9CF8A3A11F082E03BC082E0EA
:103C00008093C2068091C206823021F0C12CD12C53
:103C1000760105C0C12CD12CE12C70E4F72E20E0F8
:103C200030E0A90167E387EB96E00E941305A70146
:103C3000960169E287EB96E00E9413058093C10626
:103C4000882349F00E942B15601B710B613D774062
:103C500030F388E00FC08091C206823001F520E089
:103C600030E0A9016AE387EB96E00E941305882300
:103C700041F086E08093BC0687EB96E00E94B0049A
:103C80009DC00E94C204807C803C19F483E0809334
:103C9000C2060E94C2040E94C2040E94C20487EBB2
:103CA00096E00E94B00480E58093B5061092B606B7
:103CB00081E00E948D0D882329F08091E6068823FB
:103CC00041F07CC080E00E948D0D882309F476C00D
:103CD000F4CF8091DA06803109F582E08093E60620
:103CE0001092F8061092F9061092FA061092FB064E
:103CF0008091DB069091DC06A0E0B0E065E0880FE3
:103D0000991FAA1FBB1F6A95D1F78093F406909361
:103D1000F506A093F606B093F7061EC0803209F0B0
:103D20004DC083E08093E6064091DD065091DE06AB
:103D30006091DF067091E0064093F8065093F90613
:103D40006093FA067093FB0624EF36E083EC96E06E
:103D50000E94EE16882391F183EC96E09093FD0685
:103D60008093FC0681E08093E5061092E7061092AE
:103D7000E8061092E9061092EA061092EB061092FD
:103D8000EC061092ED061092EE061092EF061092DD
:103D9000F0061092F1061092F2061092F30684EFEC
:103DA00090E00E946C0D80ED95E00E94C31B6BEBD0
:103DB00071E080ED95E00E94C71B06C066EC71E0E3
:103DC00080ED95E00E94D91BA8E5B0E0AC0FBD1FC7
:103DD0001C96C158DF4FB983A883CF57D0400E94AB
:103DE0002B15672B682B692B41F40E942B15623031
:103DF00071058105910508F415C10E942B1560938A
:103E000000037093010380930203909303030091D6
:103E1000FC021091FD022091FE023091FF0260171A
:103E200071078207930740F46093FC027093FD02D0
:103E30008093FE029093FF020091FC021091FD021C
:103E40002091FE023091FF026B017C01C01AD10A61
:103E5000E20AF30A970186010A3F1105210531059F
:103E600008F4E0C06093FC027093FD028093FE02B0
:103E70009093FF0284EF91E0A0E0B0E080937B0696
:103E800090937C06A0937D06B0937E0610927F06E9
:103E9000109280061092810610928206809173061D
:103EA00090917406A0917506B0917606809377067E
:103EB00090937806A0937906B0937A060E942B150A
:103EC00060937306709374068093750690937606DC
:103ED0000E942B1560936F06709370068093710695
:103EE000909372060E942B156B017C0163ED71E0CB
:103EF0008091AF069091B0060E94D91B2AE041E064
:103F000050E060E070E08091AF069091B0060E94B2
:103F100058116AED71E08091AF069091B0060E9451
:103F2000D91B2AE0B701A6018091AF069091B00697
:103F30000E9458116CED71E08091AF069091B0062F
:103F40000E94D91B8091730690917406A09175060A
:103F5000B0917606B701A601481B590B6A0B7B0B83
:103F60002AE08091AF069091B0060E9458116CED46
:103F700071E08091AF069091B0060E94D91B4091EC
:103F80007306509174066091750670917606809163
:103F9000770690917806A0917906B0917A06481B31
:103FA000590B6A0B7B0B2AE08091AF069091B0060B
:103FB0000E9458116EED71E08091AF069091B006AD
:103FC0000E94D91B0E942B15AB01BC012AE08091F5
:103FD000AF069091B0060E94581160EE71E080919A
:103FE000AF069091B0060E94C71B0E942B154B0193
:103FF0005C016B017C0195E0C90ED11CE11CF11C38
:104000000E942B15681579058A059B0508F085C562
:104010000E942B1560937306709374068093750647
:10402000909376066DE871E080ED95E00E94C71BE5
:1040300080913C07882371F081E08093AA038CE58E
:104040008093CC031092AB031092CD038CE590E0EB
:104050000E94A51080913C0781110EC081E08093E1
:10406000AA0383E28093CC031092AB031092CD039A
:1040700083E290E00E94A51080E097E00E94F001AA
:10408000582E80E097E00E94F0013C0181E00E9400
:10409000BC0E19821A821B821C821D8261E083E0A1
:1040A0000E94901460E083E00E94601462E170E07E
:1040B00080E090E00E94F11461E083E00E946014CF
:1040C0008BE990E00197F1F760E083E00E949014A3
:1040D00001E117E283E00E943714892B31F401508B
:1040E0001109C1F70EEF1FEF70C001E117E283E085
:1040F0000E943714019721F401501109C1F7F2CF42
:1041000008E210E057E0D52EC12C41E1E42E47E251
:10411000F42E83E00E943714892B29F4A1E0EA1AD7
:10412000F108B9F7DFCF0E94CC144B015C0131E1FB
:10413000E32E37E2F32E83E00E943714019729F42F
:10414000B1E0EB1AF108B9F7CDCF0E94CC14DC0135
:10415000CB0188199909AA09BB098997A105B1055D
:1041600080F0E1E0F0E0EC0FFD1FEC0DF11D20818F
:1041700081E090E00D2C01C0880F0A94EAF7822BB1
:104180008083D11004C0C39427E0D22E01C0DA94FA
:104190000150110909F0B9CF8981282F30E03093FF
:1041A000F9022093F8029B81292F30E03093FB0223
:1041B0002093FA02890F01E010E09D81981302C05C
:1041C00000E010E011950195110961EE76E0CE0155
:1041D00001960E947406BE016F5F7F4FCE01CB96A1
:1041E0000E94740619A218A283E391E09F8F8E8F1C
:1041F0001BA221968FAD2197811118C06C961FAE1E
:104200001EAE6C9798EEC92E93E0D92EE12CF12CBE
:10421000A096CCAEDDAEEEAEFFAEA097E3961FAE9D
:104220001EAEE397A5961FAEA59735C0825023E139
:1042300047EE51E0823048F461EE76E0CE014E96D2
:104240000E94571781110EC0D9CFBE01655C7F4F08
:10425000CE014E960E945717882381F2CE01CB964D
:104260000E949B0349A95AA96BA97CA9CE014E962D
:104270000E944C19BE01625E7F4FCE0101960E94E2
:10428000740647EE51E0BE016F5F7F4FCE01885A42
:104290009F4F0E94C5066C968EAD9FAD6C97909314
:1042A0000F0780930E07A0968CAD9DADAEADBFAD50
:1042B000A0978093100790931107A0931207B093D3
:1042C0001307A4968CAD9DADAEADBFADA497809302
:1042D000140790931507A0931607B09317078DE066
:1042E000C158DF4FE881F981CF57D040A8E1B7E04E
:1042F00001900D928A95E1F7E396EEADFFADE3975D
:10430000F0932607E0932507309719F085818111F6
:104310000FC081E291E00E946C0D80ED95E00E945B
:10432000C31B68EE73E080E090E00E94F114EEC3DE
:1043300060EF71E080ED95E00E94D91B60EF71E0C5
:104340008CE097E00E94C71B352C212CB101662917
:10435000772980E090E00E94CD262AE939E949E9F1
:104360005FE30E94CC280E943E296B01E12CF12CD6
:104370002AE0B701A60180ED95E00E9458112AE0DD
:10438000B701A6018CE097E00E94581168EF71E038
:1043900080ED95E00E94D91B68EF71E08CE097E01A
:1043A0000E94D91B8CE097E00E94C31B8CE097E031
:1043B0000E94C31B0F3F8FEF180739F0012B41F408
:1043C00080ED95E00E94C31B09C06DEF71E002C053
:1043D0006CE072E080ED95E00E94C71B0E948D09A1
:1043E0006B017C010E94170AC701B6010E94170ADF
:1043F000C701B6010E94170AC701B6010E94170A39
:10440000C701B6010E94170AC701B6010E94170A28
:10441000C701B6010E94170A6091F20270E04AE0FB
:10442000CE0187589F4F0E94ED10C701B6010E9430
:10443000170A6091F10270E04AE0CE018D589F4F5B
:104440000E94ED10C701B6010E94170A6091F002A8
:1044500070E04AE0CE01885A9F4F0E94ED10C701DC
:10446000B6010E94170A6091F40270E04AE0CE01A2
:10447000CB960E94ED10C701B6010E94170A609109
:10448000F50270E04AE0CE014E960E94ED10C701A1
:10449000B6010E94170A6091F60270E06E54784FE0
:1044A0004AE0CE0101960E94ED106BE172E08CE0D3
:1044B00097E00E94D91BCE0187589F4F0E9494100D
:1044C00061E272E08CE097E00E94D91BCE018D582A
:1044D0009F4F0E9494106BE272E08CE097E00E9484
:1044E000D91BCE01885A9F4F0E94941065E372E059
:1044F0008CE097E00E94D91BCE01CB960E949410CD
:104500006CE372E08CE097E00E94D91BCE014E96DE
:104510000E94941065E472E08CE097E00E94D91B41
:10452000CE0101960E9494108CE097E00E94C31B7C
:104530006EE472E080ED95E00E94D91B6091F80274
:104540007091F902072E000C880B990B0E94CF2660
:10455000AB01BC0180ED95E00E948B126DE472E02E
:104560008CE097E00E94C71B6091F8027091F902FD
:10457000072E000C880B990B0E94CF26AB01BC01C3
:104580008CE097E00E948B126DE572E080ED95E083
:104590000E94D91B6091FA027091FB02072E000C59
:1045A000880B990B0E94CF26AB01BC0180ED95E0F2
:1045B0000E948B126DE572E08CE097E00E94C71BB1
:1045C0006091FA027091FB02072E000C880B990B88
:1045D0000E94CF26AB01BC018CE097E00E948B12B9
:1045E00061E772E080ED95E00E94D91B6091FA02CC
:1045F0007091FB02072E000C880B990B0E94CF26AE
:1046000026E636E646EE5FE30E942E2720E030E005
:1046100040E052E40E946028AB01BC0180ED95E0CF
:104620000E948B1261E772E08CE097E00E94C71B4A
:104630006091FA027091FB02072E000C880B990B17
:104640000E94CF2626E636E646EE5FE30E942E273E
:1046500020E030E040E052E40E946028AB01BC0161
:104660008CE097E00E948B1265E872E080ED95E0A7
:104670000E94D91B6091FA027091FB02072E000C78
:10468000880B990B0E94CF2623E333E948E853E4D3
:104690000E946028AB01BC0180ED95E00E948B1266
:1046A00065E872E08CE097E00E94C71B6091FA0217
:1046B0007091FB02072E000C880B990B0E94CF26ED
:1046C00023E333E948E853E40E946028AB01BC01CE
:1046D0008CE097E00E948B1269E972E080ED95E032
:1046E0000E94D91B6091F8027091F902072E000C0C
:1046F000880B990B0E94CF269B01AC016091FA02B6
:104700007091FB02072E000C880B990BCF57DF4FDF
:104710002883C158D040CE57DF4F3883C258D0408D
:10472000CD57DF4F4883C358D040CC57DF4F588315
:10473000C458D0400E94CF26CF57DF4F2881C158A0
:10474000D040CE57DF4F3881C258D040CD57DF4FD1
:104750004881C358D040CC57DF4F5881C458D0400F
:104760000E940F0CAB01BC0180ED95E00E948B1202
:1047700069E972E08CE097E00E94C71B6091F80243
:104780007091F902072E000C880B990B0E94CF261E
:104790009B01AC016091FA027091FB02072E000CA4
:1047A000880B990BCF57DF4F2883C158D040CE5785
:1047B000DF4F3883C258D040CD57DF4F4883C358AE
:1047C000D040CC57DF4F5883C458D0400E94CF26EA
:1047D000CF57DF4F2881C158D040CE57DF4F3881A7
:1047E000C258D040CD57DF4F4881C358D040CC5736
:1047F000DF4F5881C458D0400E940F0CAB01BC0160
:104800008CE097E00E948B126BEA72E080ED95E0FD
:104810000E94D91B6091FA027091FB02072E000CD6
:10482000880B990B0E94CF266B017C016091F802E6
:104830007091F902072E000C880B990B0E94CF266D
:104840002AE037ED43E25CE30E942E270E94822992
:104850004B015C0122E03BE24AE851E4C701B601AA
:104860000E942E272B013C0123E333EB4DE653E45A
:10487000C701B6010E9460289B01AC01C301B201CF
:104880000E94CC28A50194010E9460286B017C0144
:1048900023E333EB4DE653E40E942E274B015C01EA
:1048A000A701960162E07BE28AE891E40E945F281A
:1048B0009B01AC01C501B4010E94CC28AB01BC0135
:1048C00080ED95E00E948B126BEA72E08CE097E03D
:1048D0000E94C71B6091FA027091FB02072E000C28
:1048E000880B990B0E94CF266B017C016091F80226
:1048F0007091F902072E000C880B990B0E94CF26AD
:104900002AE037ED43E25CE30E942E270E948229D1
:104910004B015C0122E03BE24AE851E4C701B601E9
:104920000E942E272B013C0123E333EB4DE653E499
:10493000C701B6010E9460289B01AC01C301B2010E
:104940000E94CC28A50194010E9460286B017C0183
:1049500023E333EB4DE653E40E942E274B015C0129
:10496000A701960162E07BE28AE891E40E945F2859
:104970009B01AC01C501B4010E94CC28AB01BC0174
:104980008CE097E00E948B1280ED95E00E94C31BA3
:104990008CE097E00E94C31B61EC72E080ED95E033
:1049A0000E94D91B61EC72E08CE097E00E94D91B59
:1049B00080912D0790912E070E94D90B40E06CEC5E
:1049C00080912D0790912E070E946A0B4091270736
:1049D00064E480912D0790912E070E946A0B8091CC
:1049E00029078823D9F1E0912807E950E33040F402
:1049F000F0E0EE0FFF1FE55FFE4F0081118102C066
:104A00000EEE12E080912A07882311F1809127078A
:104A100081111EC00E942B156B017C014801110FF2
:104A2000AA08BB0880912D0790912E070E94170BB2
:104A30008130A1F00E942B15DC01CB018819990966
:104A4000AA09BB098C159D05AE05BF0558F306C024
:104A5000B801110F880B990B0E94F1140E940410E9
:104A6000AB01BC0122E080ED95E00E94A1110E9403
:104A70000410AB01BC0122E08CE097E00E94A11180
:104A80008CE097E00E94C31B8CE097E00E94C31B60
:104A90008CE097E00E94C31B8CE097E00E94C31B50
:104AA00060ED77E080E090E00E94F11480912507AE
:104AB00090912607009761F00E949B038091250743
:104AC000909126070E94C72B109226071092250767
:104AD00089819A810E94C72B8E8D9F8D0E94C72B42
:104AE0008BAD9CAD0E94C72B6A968EAD9FAD6A9729
:104AF0000E94C72BE5968EAD9FADE5970E94C72B10
:104B0000EB968EAD9FADEB970E94C72B0E946F1363
:104B100066C9109327070C94251DC616D706E8060C
:104B2000F90608F06DCA74CA1092D3051092D20526
:104B300088EE93E0A0E0B0E08093D4059093D50593
:104B4000A093D605B093D70521E231E03093D1058B
:104B50002093D00525EC30E03093DD052093DC0573
:104B600024EC30E03093DF052093DE0520EC30E0CC
:104B70003093E1052093E00521EC30E03093E3052C
:104B80002093E20522EC30E03093E5052093E40524
:104B900026EC30E03093E7052093E6051092E90516
:104BA0001092EA051092EB051092EC051092730634
:104BB000109274061092750610927606109277067F
:104BC000109278061092790610927A0610927B065F
:104BD00010927C0610927D0610927E0610927F063F
:104BE00010928006109281061092820620E5209392
:104BF000B5061092B6061092BC061092BD06109231
:104C0000C0061092C20642E050E060E070E04093BF
:104C1000C3065093C4066093C5067093C6061092EF
:104C2000DA061092E4061092E30623E331E03093B3
:104C3000E2062093E1061092E60610920307109216
:104C400002078093040790930507A0930607B0938B
:104C500007078FE391E0909301078093000760E0DE
:104C600082E00E949014E8E5F2E0E491E0933D07D1
:104C7000E4E4F2E0E491F0E0EE0FFF1FE85CFD4FAA
:104C80008591949190933F0780933E071092480737
:104C900010924A0710924907E8E4F7E0129287E081
:104CA000E034F807D9F78DE397E090932E078093CF
:104CB0002D0710922B0710922C071092270789E0DE
:104CC0008093280781E08093290780932A07109218
:104CD0003A071092390710920F0710920E0788EECC
:104CE00093E0A0E0B0E08093100790931107A093A9
:104CF0001207B093130781E591E090930D0780931D
:104D00000C07109226071092250710921807089595
:104D10004532510520F4423010F00C949326FB01EB
:104D20001082CB010895BB274A3031F4992322F435
:104D3000BDE2909581959F4F0C949F26BB27FB0168
:104D40005527AA27880F991FAA1FA41710F0A41B84
:104D500083955051B9F7A05DAA3308F0A95DA193DE
:104D6000009779F7B111B1931192CB010C94B82649
:104D7000DC01FC01672F71917723E1F7329704C0C2
:104D80007C916D9370836291AE17BF07C8F308954D
:104D90000E940A2708F481E00895E89409C097FB6F
:104DA0003EF490958095709561957F4F8F4F9F4F02
:104DB0009923A9F0F92F96E9BB279395F695879546
:104DC00077956795B795F111F8CFFAF4BB0F11F409
:104DD00060FF1BC06F5F7F4F8F4F9F4F16C08823B0
:104DE00011F096E911C0772321F09EE8872F762FE6
:104DF00005C0662371F096E8862F70E060E02AF027
:104E00009A95660F771F881FDAF7880F9695879512
:104E100097F90895990F0008550FAA0BE0E8FEEFE7
:104E200016161706E807F907C0F012161306E4076E
:104E3000F50798F0621B730B840B950B39F40A2667
:104E400061F0232B242B252B21F408950A2609F445
:104E5000A140A6958FEF811D811D08950E944127D5
:104E60000C94B2270E94A42738F00E94AB2720F0B0
:104E7000952311F00C949B270C94A12711240C94DA
:104E8000E6270E94C32770F3959FC1F3950F50E06A
:104E9000551F629FF001729FBB27F00DB11D639FEC
:104EA000AA27F00DB11DAA1F649F6627B00DA11D92
:104EB000661F829F2227B00DA11D621F739FB00D38
:104EC000A11D621F839FA00D611D221F749F3327A8
:104ED000A00D611D231F849F600D211D822F762F41
:104EE0006A2F11249F5750409AF0F1F088234AF01E
:104EF000EE0FFF1FBB1F661F771F881F915050408A
:104F0000A9F79E3F510580F00C949B270C94E6274F
:104F10005F3FE4F3983ED4F3869577956795B79510
:104F2000F795E7959F5FC1F7FE2B880F911D96952A
:104F3000879597F9089597F99F6780E870E060E09A
:104F400008959FEF80EC089500240A941616170622
:104F500018060906089500240A941216130614066A
:104F600005060895092E0394000C11F4882352F0CD
:104F7000BB0F40F4BF2B11F460FF04C06F5F7F4F85
:104F80008F4F9F4F089557FD9058440F551F59F06C
:104F90005F3F71F04795880F97FB991F61F09F3F26
:104FA00079F087950895121613061406551FF2CF4F
:104FB0004695F1DF08C0161617061806991FF1CF9F
:104FC00086957105610508940895E894BB276627C6
:104FD0007727CB0197F90895A1E21A2EAA1BBB1BD4
:104FE000FD010DC0AA1FBB1FEE1FFF1FA217B307B5
:104FF000E407F50720F0A21BB30BE40BF50B661FCB
:10500000771F881F991F1A9469F76095709580958E
:1050100090959B01AC01BD01CF0108950E945028DD
:10502000A59F900DB49F900DA49F800D911D1124FC
:1050300008952F923F924F925F926F927F928F923C
:105040009F92AF92BF92CF92DF92EF92FF920F9317
:105050001F93CF93DF93CDB7DEB7CA1BDB0B0FB621
:10506000F894DEBF0FBECDBF09942A8839884888DE
:105070005F846E847D848C849B84AA84B984C88474
:10508000DF80EE80FD800C811B81AA81B981CE0F6B
:10509000D11D0FB6F894DEBF0FBECDBFED01089550
:1050A000A29FB001B39FC001A39F700D811D112469
:1050B000911DB29F700D811D1124911D08955058AE
:1050C000BB27AA270E9477280C94B2270E94A42706
:1050D00038F00E94AB2720F039F49F3F19F426F4F2
:1050E0000C94A1270EF4E095E7FB0C949B27E92F85
:1050F0000E94C32758F3BA176207730784079507FE
:1051000020F079F4A6F50C94E5270EF4E0950B2E2B
:10511000BA2FA02D0B01B90190010C01CA01A00109
:105120001124FF27591B99F0593F50F4503E68F164
:105130001A16F040A22F232F342F4427585FF3CFA5
:10514000469537952795A795F0405395C9F77EF476
:105150001F16BA0B620B730B840BBAF09150A1F0BF
:10516000FF0FBB1F661F771F881FC2F70EC0BA0F45
:10517000621F731F841F48F4879577956795B795CD
:10518000F7959E3F08F0B0CF9395880F08F09927C8
:10519000EE0F9795879508950E94E0280C94B2270A
:1051A0000E94AB2758F00E94A42740F029F45F3FEB
:1051B00029F00C949B2751110C94E6270C94A127FD
:1051C0000E94C32768F39923B1F3552391F3951BEC
:1051D000550BBB27AA2762177307840738F09F5F18
:1051E0005F4F220F331F441FAA1FA9F335D00E2E85
:1051F0003AF0E0E832D091505040E695001CCAF7F2
:105200002BD0FE2F29D0660F771F881FBB1F2617B4
:1052100037074807AB07B0E809F0BB0B802DBF018B
:10522000FF2793585F4F3AF09E3F510578F00C945A
:105230009B270C94E6275F3FE4F3983ED4F38695D2
:1052400077956795B795F7959F5FC9F7880F911D7B
:105250009695879597F90895E1E0660F771F881F67
:10526000BB1F621773078407BA0720F0621B730B1A
:10527000840BBA0BEE1F88F7E09508950E94CB27A8
:1052800088F09F5798F0B92F9927B751B0F0E1F007
:10529000660F771F881F991F1AF0BA95C9F714C0B7
:1052A000B13091F00E94E527B1E008950C94E52714
:1052B000672F782F8827B85F39F0B93FCCF38695F0
:1052C00077956795B395D9F73EF49095809570954D
:1052D00061957F4F8F4F9F4F08950E940A2708F4D2
:1052E0008FEF08950E94822929ED3BE54EED5EE3A4
:1052F0000C942E2716F00C94592A0C94A12768942C
:105300000C949B270E94CB27A8F39923C1F3AEF3FB
:10531000DF93CF931F930F93FF92C92FDD2788232D
:105320002AF02197660F771F881FDAF720E030E018
:1053300040E85FEB9FE3883920F0803E38F021960B
:105340008F770E946028E8E6F0E004C00E946028A1
:10535000E5E9F0E00E94672A8B01BE01EC01FB2E1B
:105360006F5771097595771F880B990B0E94CF268F
:1053700028E132E741E35FE30E944127AF2D980126
:10538000AE01FF900F911F91CF91DF910E9477287E
:105390000C94B227FA01EE0FFF1F3096210531055C
:1053A000A1F16115710561F48038BFE39B0749F1F4
:1053B00068949038810561F08038BFEF9B0741F019
:1053C00099234AF5FF3FE1053105210519F1E894DC
:1053D0000894E795D901AA2329F4AB2FBE2FF85FD3
:1053E000D0F310C0FF5F70F4A695E0F7F73950F0E6
:1053F00019F0FF3A38F49F779F930DD00F9007FC78
:105400009058089546F00C94A12760E070E080E881
:105410009FE308954FE79F775F934F933F932F93B9
:105420000E9482292F913F914F915F910E942E27D8
:105430000C94272A0E940A27880B990B089529F4B7
:1054400016F00C949B270C94E5270C94A1270E943E
:10545000CB27A8F39638A0F707F80F92E8942BE330
:105460003AEA48EB5FE70E9444270F920F920F92AF
:105470004DB75EB70F920E94D02AE2ECF0E00E9496
:10548000672A4F915F91EF91FF91E595EE1FFF1F06
:1054900049F0FE57E0684427EE0F441FFA95E1F704
:1054A0004195550B0E949A2A0F9007FE0C948E2A64
:1054B00008959F3F31F0915020F487957795679537
:1054C000B795880F911D9695879597F90895DF9365
:1054D000CF931F930F93FF92EF92DF927B018C018A
:1054E000689406C0DA2EEF010E944127FE01E8947D
:1054F000A5912591359145915591A6F3EF010E9413
:105500007728FE019701A801DA9469F7DF90EF9000
:10551000FF900F911F91CF91DF9108959B01AC01F6
:1055200060E070E080E89FE30C94CC280C949B270B
:105530000C94592A0E94CB27D8F39923C9F3940FCE
:10554000511DA3F39150504094F059F0882332F04C
:10555000660F771F881F91505040C1F79E3F51053D
:105560002CF7880F911D9695879597F908955F3FC1
:10557000ACF0983E9CF0BB27869577956795B795DC
:1055800008F4B1609395C1F7BB0F58F711F460FFB1
:10559000E8CF6F5F7F4F8F4F9F4FE3CF0C94E6278D
:1055A000FA01DC01AA0FBB1F9B01AC01BF5728F415
:1055B000222733274427507820C0B75190F4AB2FCF
:1055C0000024469537952795011CA395D2F300201A
:1055D00071F0220F331F441FB395DAF30ED00C94F1
:1055E0005F2861307105A0E88A07B94630F49B0155
:1055F000AC016627772788279078309621F02083A2
:10560000318342835383089597FB072E16F4009449
:1056100007D077FD09D00E94182B07FC05D03EF477
:10562000909581959F4F0895709561957F4F08954E
:10563000AA1BBB1B51E107C0AA1FBB1FA617B707B8
:1056400010F0A61BB70B881F991F5A95A9F78095D4
:105650009095BC01CD010895EE0FFF1F0590F491C8
:10566000E02D0994CF93DF938230910510F482E00E
:1056700090E0E0915B07F0915C0720E030E0C0E053
:10568000D0E0309711F14081518148175907C0F09F
:105690004817590761F482819381209719F09B8301
:1056A0008A832BC090935C0780935B0726C02115EB
:1056B000310519F04217530718F49A01BE01DF01B2
:1056C000EF010280F381E02DDCCF2115310509F1D6
:1056D000281B390B2430310590F412968D919C9142
:1056E00013976115710521F0FB019383828304C038
:1056F00090935C0780935B07FD01329644C0FD01E7
:10570000E20FF31F81939193225031092D933C9323
:105710003AC02091590730915A07232B41F4209128
:1057200006013091070130935A07209359072091C1
:105730000401309105012115310541F42DB73EB723
:105740004091080150910901241B350BE091590744
:10575000F0915A07E217F307A0F42E1B3F0B28170E
:10576000390778F0AC014E5F5F4F2417350748F0DA
:105770004E0F5F1F50935A0740935907819391939F
:1057800002C0E0E0F0E0CF01DF91CF9108950F93E8
:105790001F93CF93DF93009709F48CC0FC013297DD
:1057A0001382128200915B0710915C0701151105AD
:1057B00081F420813181820F931F2091590730910C
:1057C0005A072817390779F5F0935A07E0935907D4
:1057D00071C0D80140E050E0AE17BF0750F41296F8
:1057E0002D913C911397AD012115310509F1D90196
:1057F000F3CF9D01DA013383228360817181860FAB
:10580000971F8217930769F4EC0128813981260FCD
:10581000371F2E5F3F4F318320838A819B81938383
:105820008283452B29F4F0935C07E0935B0742C029
:105830001396FC93EE931297ED01499159919E01B5
:10584000240F351FE217F30771F480819181840FD3
:10585000951F029611969C938E9382819381139645
:105860009C938E931297E0E0F0E0D80112968D9110
:105870009C911397009719F0F8018C01F6CF8D9148
:105880009C9198012E5F3F4F820F931F20915907E3
:1058900030915A072817390769F4309729F4109284
:1058A0005C0710925B0702C01382128210935A07A2
:1058B00000935907DF91CF911F910F910895A0E0B8
:1058C000B0E0E5E6FCE20C941D28EC01009721F421
:1058D000CB010E94322BB8C0FC01E60FF71F9C01E0
:1058E00022503109E217F30708F4ACC0D9010D9139
:1058F0001C91119706171707B0F00530110508F431
:105900009FC0C80104978617970708F499C00250F2
:105910001109061B170B019311936D937C93CF0113
:105920000E94C72B8DC05B01A01AB10A4C01800EEA
:10593000911EA0915B07B0915C0740E050E0E12C24
:10594000F12C109709F44AC0A815B905D1F56D904E
:105950007C901197630182E0C80ED11CCA14DB044D
:1059600080F1A3014A195B096A0182E0C80ED11CCB
:105970001296BC9012971396AC91B5E0CB16D10459
:1059800040F0B282A38351834083D9016D937C930D
:105990000AC00E5F1F4FC301800F911FF901918351
:1059A0008083EB2DFA2FE114F10431F0D701139627
:1059B000FC93EE93129744C0F0935C07E0935B076F
:1059C0003FC08D919C9111974817590708F4AC017D
:1059D0007D0112960D90BC91A02DB3CF80915907F7
:1059E00090915A0788159905E1F446175707C8F4AE
:1059F0008091040190910501009741F48DB79EB705
:105A00004091080150910901841B950BE817F90793
:105A1000C8F4F0935A07E0935907F9017183608342
:105A20000FC0CB010E94322B7C01009759F0A801D6
:105A3000BE010E943B2DCE010E94C72BC70104C0AE
:105A4000CE0102C080E090E0CDB7DEB7EEE00C946E
:105A5000392881E090E0F8940C945A2DFB01DC0188
:105A600004C08D910190801921F441505040C8F735
:105A7000881B990B0895FB01DC0102C001900D9277
:105A800041505040D8F70895FB01DC0101900D9280
:105A90000020E1F70895FB01DC014150504048F03F
:105AA00001900D920020C9F701C01D924150504055
:085AB000E0F70895F894FFCF20
:105AB800FFFFFFFF00005D078000005E00BC00776D
:105AC800011F1C1F1E1F1E1F1F1E1F1E1F00000060
